:020000040800F2
:1000000000800120D9010008290200082902000807
:100010002902000829020008290200080000000047
:10002000000000000000000000000000290200089D
:100030002902000800000000290200082902000827
:1000400029020008290200082902000829020008E4
:1000500029020008290200082902000829020008D4
:1000600029020008290200082902000829020008C4
:1000700029020008290200082902000829020008B4
:1000800029020008290200082902000829020008A4
:100090002902000829020008290200082902000894
:1000A0002902000829020008290200082902000884
:1000B0002902000829020008290200082902000874
:1000C0002902000829020008290200082902000864
:1000D0002902000829020008290200082902000854
:1000E0002902000829020008290200082902000844
:1000F0002902000829020008290200082902000834
:100100002902000829020008290200082902000823
:100110002902000829020008290200082902000813
:100120002902000829020008290200082902000803
:1001300029020008290200082902000829020008F3
:1001400029020008290200082902000829020008E3
:1001500029020008290200082902000829020008D3
:1001600029020008290200082902000829020008C3
:1001700029020008290200082902000800000000E6
:08018000290200082902000811
:1001880010B5054C237833B9044B13B10448AFF3C9
:1001980000800123237010BD000000200000000033
:1001A800A802000808B5034B1BB103490348AFF385
:1001B800008008BD0000000004000020A80200081C
:1001C80080B582B000AF00F03FF87860FEE700002D
:1001D800DFF834D000F026F80C480D490D4A00230A
:1001E80002E0D458C4500433C4188C42F9D30A4AE4
:1001F8000A4C002301E013600432A242FBD300F052
:100208002BF8FFF7DDFFFEE700800120000000204B
:1002180000000020D0020008000000201C00002080
:10022800FEE7000080B400AF064BD3F88830054ADB
:1002380043F47003C2F8883000BFBD465DF8047B04
:10024800704700BF00ED00E080B400AF0A231846F5
:10025800BD465DF8047B704770B50D4D0D4C641BB1
:10026800A4100026A64209D10B4D0C4C00F018F83A
:10027800641BA4100026A64205D170BD55F8043BA6
:1002880098470136EEE755F8043B98470136F2E700
:10029800C0020008C0020008C0020008C40200082A
:1002A800F8B500BFF8BC08BC9E467047F8B500BF5B
:0802B800F8BC08BC9E4670472B
:0802C000AD0100080000000080
:0802C80089010008000000009C
:04000005080001D915
:00000001FF
